{
  "contractName": "Notary",
  "abi": [
    {
      "inputs": [],
      "payable": false,
      "stateMutability": "nonpayable",
      "type": "constructor"
    },
    {
      "constant": false,
      "inputs": [
        {
          "name": "hash",
          "type": "bytes32"
        }
      ],
      "name": "addDocHash",
      "outputs": [],
      "payable": false,
      "stateMutability": "nonpayable",
      "type": "function"
    },
    {
      "constant": true,
      "inputs": [
        {
          "name": "hash",
          "type": "bytes32"
        }
      ],
      "name": "findDocHash",
      "outputs": [
        {
          "name": "",
          "type": "uint256"
        },
        {
          "name": "",
          "type": "uint256"
        }
      ],
      "payable": false,
      "stateMutability": "view",
      "type": "function"
    }
  ],
  "bytecode": "0x6060604052341561000f57600080fd5b61019d8061001e6000396000f30060606040526004361061004c576000357c0100000000000000000000000000000000000000000000000000000000900463ffffffff168063133a48f3146100515780634cf00d3f14610078575b600080fd5b341561005c57600080fd5b6100766004808035600019169060200190919050506100ba565b005b341561008357600080fd5b61009d60048080356000191690602001909190505061010f565b604051808381526020018281526020019250505060405180910390f35b6100c2610157565b604080519081016040528042815260200143815250905080600080846000191660001916815260200190815260200160002060008201518160000155602082015181600101559050505050565b60008060008084600019166000191681526020019081526020016000206000015460008085600019166000191681526020019081526020016000206001015491509150915091565b6040805190810160405280600081526020016000815250905600a165627a7a72305820502eef7c78e55c08c82713d89736682fbb1cf598e6293e55b0f8a56156a839780029",
  "source": "pragma solidity ^0.4.4;\n\ncontract Notary {\nstruct Record {\n    uint mineTime;\n    uint blockNumber;\n  }\nmapping (bytes32 => Record) private docHashes;\nfunction Notary() public {\n    // constructor\n  }\nfunction addDocHash (bytes32 hash) public {\n    Record memory newRecord = Record(now, block.number);\n    docHashes[hash] = newRecord;\n  }\nfunction findDocHash (bytes32 hash) public constant returns(uint, uint) {\n    return (docHashes[hash].mineTime, docHashes[hash].blockNumber);\n  }\n}\n",
  "sourcePath": "/mnt/12deb17c-6f93-4208-aff7-fc6e9c8a70f5/Projecten/hashControleApp/contracts/Notary.sol",
  "compiler": {
    "name": "solc",
    "version": "0.4.19+commit.c4cbbb05.Emscripten.clang"
  },
  "schemaVersion": "2.0.0",
  "updatedAt": "2018-04-18T19:37:22.309Z"
}